:020000040800F2
:100000000000022081CF0008D5B30008DDB300084E
:10001000E5B30008EDB30008F5B3000800000000E8
:10002000000000000000000000000000A987000898
:10003000FDB30008000000006587000895860008F1
:10004000D1CF0008D1CF0008D1CF0008D1CF000810
:10005000D1CF0008D1CF0008D1CF0008D1CF000800
:10006000D1CF0008D1CF0008D1CF0008A995000852
:10007000D1CF0008D1CF0008D1CF0008D1CF0008E0
:10008000D1CF0008D1CF0008D1CF0008D1CF0008D0
:10009000D1CF0008D1CF0008D1CF0008D1CF0008C0
:1000A000D1CF0008D1CF0008D1CF0008D1CF0008B0
:1000B0000DB40008D1CF0008D1CF0008D1CF00087F
:1000C000D1CF0008D1CF0008D1CF0008D1CF000890
:1000D000D1CF0008D1CF0008D1CF0008D1CF000880
:1000E00021B40008D1CF0008D1CF0008D1CF00083B
:1000F000D1CF0008D1CF0008D1CF0008D1CF000860
:10010000D1CF0008D1CF0008D1CF0008D1CF00084F
:10011000D1CF0008D1CF0008D1CF0008D1CF00083F
:10012000D1CF0008D1CF0008D1CF0008D1CF00082F
:10013000D1CF0008D1CF0008D1CF0008D1CF00081F
:10014000D1CF0008D1CF0008D1CF0008D1CF00080F
:10015000D1CF0008D1CF0008D1CF0008D1CF0008FF
:10016000D1CF0008D1CF0008D1CF0008D1CF0008EF
:10017000D1CF0008D1CF0008D1CF0008D1CF0008DF
:10018000D1CF0008D1CF0008D1CF0008D1CF0008CF
:10019000D1CF000800000000D1CF0008D1CF000867
:1001A000D1CF0008D1CF0008D1CF00089595000825
:1001B000D1CF0008D1CF0008D1CF0008D1CF00089F
:1001C000D1CF0008D1CF0008D1CF0008D1CF00088F
:0801D000D1CF0008D1CF0008D7
:1001D80081F0004102E000BF83F0004330B54FEAF0
:1001E80041044FEA430594EA050F08BF90EA020F5D
:1001F8001FBF54EA000C55EA020C7FEA645C7FEAF0
:10020800655C00F0E2804FEA5454D4EB5555B8BF12
:100218006D420CDD2C4480EA020281EA030382EA83
:10022800000083EA010180EA020281EA0303362D15
:1002380088BF30BD11F0004F4FEA01314FF4801CE8
:100248004CEA113102D0404261EB410113F0004FFA
:100258004FEA03334CEA133302D0524263EB4303B1
:1002680094EA050F00F0A780A4F10104D5F1200E4F
:100278000DDB02FA0EFC22FA05F2801841F10001AA
:1002880003FA0EF2801843FA05F359410EE0A5F17E
:1002980020050EF1200E012A03FA0EFC28BF4CF0AF
:1002A800020C43FA05F3C01851EBE37101F0004565
:1002B80007D54FF0000EDCF1000C7EEB00006EEB72
:1002C8000101B1F5801F1BD3B1F5001F0CD34908FC
:1002D8005FEA30004FEA3C0C04F101044FEA445253
:1002E80012F5800F80F09A80BCF1004F08BF5FEADA
:1002F800500C50F1000041EB045141EA050130BDBA
:100308005FEA4C0C404141EB0101013C28BFB1F5CB
:10031800801FE9D291F0000F04BF01460020B1FA16
:1003280081F308BF2033A3F10B03B3F120020CDAE9
:100338000C3208DD02F1140CC2F10C0201FA0CF0C7
:1003480021FA02F10CE002F11402D8BFC2F1200C2C
:1003580001FA02F120FA0CFCDCBF41EA0C019040E2
:10036800E41AA2BF01EB0451294330BD6FEA04042B
:100378001F3C1CDA0C340EDC04F11404C4F1200216
:1003880020FA04F001FA02F340EA030021FA04F328
:1003980045EA030130BDC4F10C04C4F1200220FA7F
:1003A80002F001FA04F340EA0300294630BD21FABD
:1003B80004F0294630BD94F0000F83F4801306BF83
:1003C80081F480110134013D4EE77FEA645C18BF77
:1003D8007FEA655C29D094EA050F08BF90EA020F0E
:1003E80005D054EA000C04BF1946104630BD91EA06
:1003F800030F1EBF0021002030BD5FEA545C05D109
:100408004000494128BF41F0004130BD14F5800447
:100418003CBF01F5801130BD01F0004545F0FE41BB
:1004280041F470014FF0000030BD7FEA645C1ABFF0
:10043800194610467FEA655C1CBF0B46024650EA27
:10044800013406BF52EA033591EA030F41F4002153
:1004580030BD00BF90F0000F04BF0021704730B5D9
:100468004FF4806404F132044FF000054FF00001AE
:1004780050E700BF90F0000F04BF0021704730B56F
:100488004FF4806404F1320410F0004548BF404244
:100498004FF000013EE700BF42004FEAE2014FEA99
:1004A80031014FEA02701FBF12F07F4393F07F4F74
:1004B80081F06051704732F07F4208BF704793F077
:1004C8007F4F04BF41F40021704730B54FF460748A
:1004D80001F0004521F000411CE700BF50EA01028D
:1004E80008BF704730B54FF000050AE050EA010236
:1004F80008BF704730B511F0004502D5404261EBA6
:1005080041014FF4806404F132045FEA915C3FF4E6
:10051800D8AE4FF003025FEADC0C18BF03325FEA83
:10052800DC0C18BF033202EBDC02C2F1200300FA34
:1005380003FC20FA02F001FA03FE40EA0E0021FA59
:1005480002F11444BDE600BF70B54FF0FF0C4CF447
:10055800E06C1CEA11541DBF1CEA135594EA0C0FF9
:1005680095EA0C0F00F0DEF82C4481EA030621EA34
:100578004C5123EA4C5350EA013518BF52EA03356F
:1005880041F4801143F4801338D0A0FB02CE4FF021
:100598000005E1FB02E506F00042E0FB03E54FF051
:1005A8000006E1FB03569CF0000F18BF4EF0010E49
:1005B800A4F1FF04B6F5007F64F5407404D25FEA45
:1005C8004E0E6D4146EB060642EAC62141EA5551F8
:1005D8004FEAC52040EA5E504FEACE2EB4F1FD0C3A
:1005E80088BFBCF5E06F1ED8BEF1004F08BF5FEAB8
:1005F800500E50F1000041EB045170BD06F000466A
:1006080046EA010140EA020081EA0301B4EB5C0416
:10061800C2BFD4EB0C0541EA045170BD41F480110E
:100628004FF0000E013C00F3AB8014F1360FDEBF33
:10063800002001F0004170BDC4F10004203C35DA0F
:100648000C341BDC04F11404C4F1200500FA05F392
:1006580020FA04F001FA05F240EA020001F0004233
:1006680021F0004110EBD37021FA04F642EB0601A9
:100678005EEA430E08BF20EAD37070BDC4F10C04D3
:10068800C4F1200500FA04F320FA05F001FA04F297
:1006980040EA020001F0004110EBD37041F1000183
:1006A8005EEA430E08BF20EAD37070BDC4F120058E
:1006B80000FA05F24EEA020E20FA04F301FA05F2F6
:1006C80043EA020321FA04F001F0004121FA04F29E
:1006D80020EA020000EBD3705EEA430E08BF20EA6E
:1006E800D37070BD94F0000F0FD101F000464000A8
:1006F80041EB010111F4801F08BF013CF7D041EA2A
:10070800060195F0000F18BF704703F0004652002D
:1007180043EB030313F4801F08BF013DF7D043EAFE
:100728000603704794EA0C0F0CEA135518BF95EAB4
:100738000C0F0CD050EA410618BF52EA4306D1D13B
:1007480081EA030101F000414FF0000070BD50EA5A
:10075800410606BF1046194652EA430619D094EAE4
:100768000C0F02D150EA013613D195EA0C0F05D1CE
:1007780052EA03361CBF104619460AD181EA030122
:1007880001F0004141F0FE4141F470014FF00000DA
:1007980070BD41F0FE4141F4780170BD70B54FF075
:1007A800FF0C4CF4E06C1CEA11541DBF1CEA1355F5
:1007B80094EA0C0F95EA0C0F00F0A7F8A4EB0504D7
:1007C80081EA030E52EA03354FEA013100F08880CE
:1007D8004FEA03334FF0805545EA131343EA126397
:1007E8004FEA022245EA111545EA10654FEA00264C
:1007F8000EF000419D4208BF964244F1FD0404F505
:10080800407402D25B084FEA3202B61A65EB030560
:100818005B084FEA32024FF480104FF4002CB6EB1D
:10082800020E75EB030E22BFB61A754640EA0C009D
:100838005B084FEA3202B6EB020E75EB030E22BFDD
:10084800B61A754640EA5C005B084FEA3202B6EB1E
:10085800020E75EB030E22BFB61A754640EA9C00DD
:100868005B084FEA3202B6EB020E75EB030E22BFAD
:10087800B61A754640EADC0055EA060E18D04FEA6B
:10088800051545EA16754FEA06164FEAC30343EA0B
:1008980052734FEAC2025FEA1C1CC0D111F4801FD8
:1008A8000BD141EA00014FF000004FF0004CB6E7D1
:1008B80011F4801F04BF01430020B4F1FD0C88BF70
:1008C800BCF5E06F3FF6AFAEB5EB030C04BFB6EB7B
:1008D800020C5FEA500C50F1000041EB045170BD6E
:1008E8000EF0004E4EEA113114EB5C04C2BFD4EB9B
:1008F8000C0541EA045170BD41F480114FF0000E1F
:10090800013C90E645EA060E8DE60CEA135594EA9A
:100918000C0F08BF95EA0C0F3FF43BAF94EA0C0F9D
:100928000AD150EA01347FF434AF95EA0C0F7FF412
:1009380025AF104619462CE795EA0C0F06D152EA66
:1009480003353FF4FDAE1046194622E750EA41064A
:1009580018BF52EA43067FF4C5AE50EA41047FF45B
:100968000DAF52EA43057FF4EBAE12E74FF0FF3CC0
:1009780006E000BF4FF0010C02E000BF4FF0010C91
:100988004DF804CD4FEA410C7FEA6C5C4FEA430C0A
:1009980018BF7FEA6C5C1BD001B050EA410C0CBF59
:1009A80052EA430C91EA030F02BF90EA020F0020BB
:1009B800704710F1000F91EA030F58BF994208BF22
:1009C80090422CBFD8176FEAE37040F001007047DF
:1009D8004FEA410C7FEA6C5C02D150EA013C07D136
:1009E8004FEA430C7FEA6C5CD6D152EA033CD3D081
:1009F8005DF8040B704700BF8446104662468C467B
:100A08001946634600E000BF01B5FFF7B7FF0028AD
:100A180048BF10F1000F01BD4DF808EDFFF7F4FFD6
:100A28000CBF012000205DF808FB00BF4DF808ED61
:100A3800FFF7EAFF34BF012000205DF808FB00BF84
:100A48004DF808EDFFF7E0FF94BF012000205DF8A6
:100A580008FB00BF4DF808EDFFF7CEFF94BF01205B
:100A680000205DF808FB00BF4DF808EDFFF7C4FF54
:100A780034BF012000205DF808FB00BF4FEA410C9D
:100A88007FEA6C5C02D150EA013C0AD14FEA430C80
:100A98007FEA6C5C02D152EA033C02D14FF00000BD
:100AA80070474FF0010070474A0011D212F500124A
:100AB80011D20DD56FF47873B3EB62520ED44FEAAE
:100AC800C12343F0004343EA505323FA02F070472E
:100AD8004FF00000704750EA013002D14FF0FF306C
:100AE80070474FF00000704753B94AB9002908BF52
:100AF80000281CBF4FF0FF314FF0FF3000F00CB85A
:100B0800ADF1080C6DE904CE0CF01CFCDDF804E036
:100B1800DDE9022304B07047704700BF0348044B67
:100B2800834202D0034B03B118477047E40000200A
:100B3800E4000020000000000548064B1B1AD90FEE
:100B480001EBA301491002D0034B03B118477047CA
:100B5800E4000020E40000200000000010B5064C6E
:100B6800237843B9FFF7DAFF044B13B10448AFF316
:100B780000800123237010BDE80000200000000061
:100B880088D6000808B5054B1BB105490548AFF3E1
:100B98000080BDE80840FFF7CFBF00BF000000009D
:100BA800EC00002088D6000880B485B000AF7860DB
:100BB8007B681B6803F06003FB60FB68002B04D1B3
:100BC8007B681B6803F01003FB60FB68184614374A
:100BD800BD465DF8047B704780B483B000AF786091
:100BE8007B685B6A18460C37BD465DF8047B704726
:100BF80080B483B000AF78607B681B6B18460C37F5
:100C0800BD465DF8047B704780B483B000AF786060
:100C180039607B681A6A3B681A437B681A6200BFAE
:100C28000C37BD465DF8047B704780B483B000AFD5
:100C3800786039607B681A6A3B68DB431A407B68D6
:100C48001A6200BF0C37BD465DF8047B704780B45C
:100C580083B000AF78607B685B6C43F400427B68CC
:100C68005A6400BF0C37BD465DF8047B704780B4FA
:100C780083B000AF78607B681B6903F48013B3F519
:100C8800801F01D1012300E0002318460C37BD4620
:100C98005DF8047B704780B483B000AF78607B68F0
:100CA800DB6843F001027B68DA6000BF0C37BD46A1
:100CB8005DF8047B704780B483B000AF78607B68D0
:100CC800DB6823F001027B68DA6000BF0C37BD46A1
:100CD8005DF8047B704780B483B000AF78607B68B0
:100CE800DB6803F00103012B01D1012300E000239D
:100CF80018460C37BD465DF8047B704780B483B056
:100D080000AF78607B68DB6843F002027B68DA60DA
:100D180000BF0C37BD465DF8047B704780B483B0D4
:100D280000AF78607B68DB6823F002027B68DA60DA
:100D380000BF0C37BD465DF8047B704780B483B0B4
:100D480000AF78607B68DB6803F00203022B01D1F7
:100D5800012300E0002318460C37BD465DF8047BEC
:100D6800704780B483B000AF78607B68DB6843F07D
:100D780004027B68DA6000BF0C37BD465DF8047B6F
:100D8800704780B483B000AF78607B68DB6823F07D
:100D980004027B68DA6000BF0C37BD465DF8047B4F
:100DA800704780B483B000AF78607B68DB6803F07D
:100DB8000403042B01D1012300E0002318460C375B
:100DC800BD465DF8047B704780B483B000AF78609F
:100DD8007B68DB6843F008027B68DA6000BF0C3789
:100DE800BD465DF8047B704780B483B000AF78607F
:100DF8007B68DB6823F008027B68DA6000BF0C3789
:100E0800BD465DF8047B704780B483B000AF78605E
:100E18007B68DB6803F00803082B01D1012300E09D
:100E2800002318460C37BD465DF8047B704780B434
:100E380083B000AF78607B68DB6843F010027B68A2
:100E4800DA6000BF0C37BD465DF8047B704780B49C
:100E580083B000AF78607B68DB6823F010027B68A2
:100E6800DA6000BF0C37BD465DF8047B704780B47C
:100E780083B000AF78607B68DB6803F01003102B49
:100E880001D1012300E0002318460C37BD465DF868
:100E9800047B704780B483B000AF78607B68DB6800
:100EA80043F020027B68DA6000BF0C37BD465DF86E
:100EB800047B704780B483B000AF78607B68DB68E0
:100EC80023F020027B68DA6000BF0C37BD465DF86E
:100ED800047B704780B483B000AF78607B68DB68C0
:100EE80003F02003202B01D1012300E00023184642
:100EF8000C37BD465DF8047B704780B483B000AF03
:100F080078607B68DB6843F040027B68DA6000BF8A
:100F18000C37BD465DF8047B704780B483B000AFE2
:100F280078607B68DB6823F040027B68DA6000BF8A
:100F38000C37BD465DF8047B704780B483B000AFC2
:100F480078607B68DB6803F04003402B01D1012304
:100F580000E0002318460C37BD465DF8047B704757
:100F680080B483B000AF78607B68DB6843F08002B0
:100F78007B68DA6000BF0C37BD465DF8047B7047BC
:100F880080B483B000AF78607B68DB6823F08002B0
:100F98007B68DA6000BF0C37BD465DF8047B70479C
:100FA80080B483B000AF78607B68DB6803F08003AF
:100FB800802B01D1012300E0002318460C37BD46E1
:100FC8005DF8047B704780B483B000AF78607B68BD
:100FD800DB6843F400027B68DA6000BF0C37BD466B
:100FE8005DF8047B704780B483B000AF78607B689D
:100FF800DB6823F400027B68DA6000BF0C37BD466B
:101008005DF8047B704780B483B000AF78607B687C
:10101800DB6803F40003B3F5000F01D1012300E0FE
:10102800002318460C37BD465DF8047B704780B432
:1010380083B000AF78607B68DB6843F480027B682C
:10104800DA6000BF0C37BD465DF8047B704780B49A
:1010580083B000AF78607B68DB6823F480027B682C
:10106800DA6000BF0C37BD465DF8047B704780B47A
:1010780083B000AF78607B68DB6803F48003B3F566
:10108800800F01D1012300E0002318460C37BD462C
:101098005DF8047B704780B483B000AF78607B68EC
:1010A800DB6843F400127B68DA6000BF0C37BD468A
:1010B8005DF8047B704780B483B000AF78607B68CC
:1010C800DB6823F400127B68DA6000BF0C37BD468A
:1010D8005DF8047B704780B483B000AF78607B68AC
:1010E800DB6803F40013B3F5001F01D1012300E00E
:1010F800002318460C37BD465DF8047B704780B462
:1011080083B000AF78607B68DB6843F480127B684B
:10111800DA6000BF0C37BD465DF8047B704780B4C9
:1011280083B000AF78607B68DB6823F480127B684B
:10113800DA6000BF0C37BD465DF8047B704780B4A9
:1011480083B000AF78607B68DB6803F48013B3F585
:10115800801F01D1012300E0002318460C37BD464B
:101168005DF8047B704780B582B000AF78607B681B
:101178001B681846FFF77BFD0346012B02D17B68ED
:101188000122DA717B68DB79012B0CBF0123002374
:10119800DBB218460837BD4680BD80B582B000AFC7
:1011A80078600B467B807B8803F00103002B0CD012
:1011B8007B681B681846FFF7C0FE0346012B04D066
:1011C8007B681B681846FFF798FE7B8803F00203CC
:1011D800002B0CD07B681B681846FFF7AFFD034651
:1011E800012B04D07B681B681846FFF787FD7B88B6
:1011F80003F00403002B0CD07B681B681846FFF72C
:10120800D0FD0346012B04D07B681B681846FFF706
:10121800A8FD7B8803F00803002B0CD07B681B68B3
:101228001846FFF7F1FD0346012B04D07B681B68C5
:101238001846FFF7C9FD7B8803F01003002B0CD07C
:101248007B681B681846FFF712FE0346012B04D083
:101258007B681B681846FFF7EAFD7B8803F02003CC
:10126800002B0CD07B681B681846FFF734FD03463B
:10127800012B04D07B681B681846FFF70CFD7B88A0
:1012880003F04003002B0CD07B681B681846FFF75F
:1012980087FE0346012B04D07B681B681846FFF7BE
:1012A8005FFE7B8803F08003002B0CD07B681B68F3
:1012B8001846FFF70FFE0346012B04D07B681B6816
:1012C8001846FFF7E7FD7B8803F48073002B0CD0EA
:1012D8007B681B681846FFF732FF0346012B04D0D2
:1012E8007B681B681846FFF70AFF7B8803F40073C6
:1012F800002B0CD07B681B681846FFF7ECFE0346F2
:10130800012B04D07B681B681846FFF7C4FE7B8856
:1013180003F48063002B0CD07B681B681846FFF72A
:1013280072FE0346012B04D07B681B681846FFF742
:101338004AFE7B8803F40063002B0CD07B681B6893
:101348001846FFF794FE0346012B04D07B681B6800
:101358001846FFF76CFE00BF0837BD4680BD80B554
:1013680082B000AF78600B467B807B8803F0010376
:10137800002B0CD07B681B681846FFF7DEFD034680
:10138800012B04D17B681B681846FFF7C6FD7B88D4
:1013980003F00203002B0CD07B681B681846FFF78C
:1013A800CDFC0346012B04D17B681B681846FFF768
:1013B800B5FC7B8803F00403002B0CD07B681B680A
:1013C8001846FFF7EEFC0346012B04D17B681B6827
:1013D8001846FFF7D6FC7B8803F00803002B0CD0D7
:1013E8007B681B681846FFF70FFD0346012B04D1E5
:1013F8007B681B681846FFF7F7FC7B8803F010032F
:10140800002B0CD07B681B681846FFF730FD03469D
:10141800012B04D17B681B681846FFF718FD7B88F1
:1014280003F02003002B0CD07B681B681846FFF7DD
:1014380052FC0346012B04D07B681B681846FFF753
:101448003AFC7B8803F04003002B0CD07B681B68B8
:101458001846FFF7A5FD0346012B04D17B681B68DE
:101468001846FFF78DFD7B8803F08003002B0CD016
:101478007B681B681846FFF72DFD0346012B04D136
:101488007B681B681846FFF715FD7B8803F480739B
:10149800002B0CD07B681B681846FFF750FE0346EC
:1014A800012B04D17B681B681846FFF738FE7B8840
:1014B80003F40073002B0CD07B681B681846FFF7F9
:1014C8000AFE0346012B04D17B681B681846FFF708
:1014D800F2FD7B8803F48063002B0CD07B681B68CB
:1014E8001846FFF790FD0346012B04D17B681B6863
:1014F8001846FFF778FD7B8803F40063002B0CD0B7
:101508007B681B681846FFF7B2FD0346012B04D120
:101518007B681B681846FFF79AFD00BF0837BD4671
:1015280080BD000080B582B000AF78600B46FB70CC
:10153800FB78022B06D17B681B6801211846FFF750
:1015480063FB36E07B681B681C4A934218D07B68B3
:101558001B681B4A934213D07B681B68194A934245
:101568000ED07B681B68184A934209D07B681B68B9
:10157800164A934204D07B681B68154A934218D1D7
:10158800FB78032B06D17B681B6804211846FFF7FC
:101598003BFB0EE0FB78042B0BD17B681B68012119
:1015A8001846FFF731FB7B681B6804211846FFF7D4
:1015B8002BFB00BF0837BD4680BD00BF002C014093
:1015C800003401400040014000440140004801400F
:1015D8000050014080B582B000AF78600B46FB70C8
:1015E800FB78022B06D17B681B6801211846FFF7A0
:1015F8001CFB36E07B681B681C4A934218D07B684A
:101608001B681B4A934213D07B681B68194A934294
:101618000ED07B681B68184A934209D07B681B6808
:10162800164A934204D07B681B68154A934218D126
:10163800FB78032B06D17B681B6804211846FFF74B
:10164800F4FA0EE0FB78042B0BD17B681B680121B0
:101658001846FFF7EAFA7B681B6804211846FFF76B
:10166800E4FA00BF0837BD4680BD00BF002C01402A
:10167800003401400040014000440140004801405E
:101688000050014080B582B000AF78600B46FB7017
:10169800FB78022B06D17B681B6810211846FFF7E0
:1016A800B3FA36E07B681B681C4A934218D07B6803
:1016B8001B681B4A934213D07B681B68194A9342E4
:1016C8000ED07B681B68184A934209D07B681B6858
:1016D800164A934204D07B681B68154A934218D176
:1016E800FB78032B06D17B681B6840211846FFF75F
:1016F8008BFA0EE0FB78042B0BD17B681B6810215A
:101708001846FFF781FA7B681B6840211846FFF7E7
:101718007BFA00BF0837BD4680BD00BF002C0140E2
:1017280000340140004001400044014000480140AD
:101738000050014080B582B000AF78600B46FB7066
:10174800FB78022B06D17B681B6810211846FFF72F
:101758006CFA36E07B681B681C4A934218D07B6899
:101768001B681B4A934213D07B681B68194A934233
:101778000ED07B681B68184A934209D07B681B68A7
:10178800164A934204D07B681B68154A934218D1C5
:10179800FB78032B06D17B681B6840211846FFF7AE
:1017A80044FA0EE0FB78042B0BD17B681B681021F0
:1017B8001846FFF73AFA7B681B6840211846FFF77E
:1017C80034FA00BF0837BD4680BD00BF002C014079
:1017D80000340140004001400044014000480140FD
:1017E8000050014080B584B000AF78600023FB60F2
:1017F8007B681B68384A934201D1384BFB607B6891
:101808001A68FB681A60FB681B681846FFF7CCF972
:10181800B860BB68002B06D0BB68102B03D0FB68F0
:1018280001221A7102E0FB6800221A71FB681B682A
:101838002B4A934218D0FB681B682A4A934213D05C
:10184800FB681B68284A93420ED0FB681B68274A2E
:10185800934209D0FB681B68254A934204D0FB6871
:101868001B68244A934204D1FB681B681846FFF79B
:10187800EEF9FB681B681A4A934218D0FB681B688C
:10188800184A934213D0FB681B68174A93420ED03C
:10189800FB681B68154A934209D0FB681B68144A09
:1018A800934204D0FB681B68124A934208D17B68B4
:1018B8001B681846FFF79CF90346DAB2FB685A71B1
:1018C800FB6800229A71FB680022DA71FB681846EF
:1018D8001037BD4680BD00BF000400400401002051
:1018E800002C014000340140004001400044014008
:1018F800004801400050014080B584B000AFF86056
:101908000B467A60FB72FB7A012B02D07B68002BB6
:1019180017D0114B1B78002B13D1F868FFF723FC65
:101928000346002B04D1FB7A012B0AD100230EE0D9
:101938007B68002B02D07B6801221A70064B0122BB
:101948001A70FB681B681846FFF746F903461846E5
:101958001037BD4680BD00BF9001002080B485B01F
:1019680000AF786039600023FB7397F90F30184691
:101978001437BD465DF8047B7047000080B584B01D
:1019880000AF786039600023FB727B68002B05D1BB
:10199800374800F0C5FC4FF0FF3365E03B68002B8B
:1019A80005D1344800F0BCFC4FF0FF335CE0324B0B
:1019B800D3E900014FF000024FF04043FFF72CF845
:1019C8000346002B06D03B68D3E900232A49C1E926
:1019D800002305E0284BD3E900233968C1E9002337
:1019E800254BD3E900014FF00002244BFFF714F810
:1019F8000346002B02D0224800F092FC7B685B680B
:101A08001B68204A13607B685B685B681E4A13602A
:101A18007B685B689B681D4A13607B685B68DB6852
:101A28001B4A13601B4B00221A6001F0F3F80023D5
:101A3800FB600023FB6007E0174AFB68174942F880
:101A48002310FB680133FB60FB68012BF4D900F01D
:101A580021FD0346FB7297F90B30002B02D1104B86
:101A680001221A7097F90B3018461037BD4680BD11
:101A7800A0D60008C4D60008000000200000F0BF6F
:101A8800F0D60008200200202402002028020020AE
:101A98002C0200203002002094010020852C000830
:101AA8001D02002080B586B000AF78600023FB756A
:101AB80000233B610023FB732A4B1B78DBB2002B0E
:101AC8000CBF01230023DBB2BB73274B02221A7021
:101AD8007B68002B0BD1234B1B78DBB2002B06D184
:101AE800224B1B78DBB2002B01D1012300E000233D
:101AF800FB7316E00A2006F0CFFC3B6903F51C5384
:101B080010333B617B68B3F1FF3F05D03A697B68CE
:101B18009A4201D9012300E00023FB73002000F062
:101B280011FD104B1B78DBB2002B07D10F4B1B7834
:101B3800DBB2002B02D1FB7B002BDBD00A4B03224C
:101B48001A70FB7B002B01D09C23FB75BB7B002B01
:101B580001D001F08DF997F9173018461837BD46AE
:101B680080BD00BF1B0200201D0200201C020020B7
:101B780080B586B000AF034687ED000BFB810023DC
:101B8800FB750123BB754FF000024FF00003D7E946
:101B98000001FEF74BFF0346002B05D02E4800F04E
:101BA800BFFB4FF0FF3353E0FB89FF2B08D9FB89BC
:101BB800FF221946294800F0B3FB4FF0FF3347E0F6
:101BC800274B1B78DBB2032B04D0254B1B78DBB2E9
:101BD800012B02D1224B04221A70FB89012B15D844
:101BE800FB89204A52F82330002B0FD001F006FD64
:101BF80003467B757B7D022B08D1FB89194A52F875
:101C08002330FA89104698470346BB75FB897B82C7
:101C1800FB89184697ED000B00F09EFBBB7D002B5F
:101C280006D07B8A184601F0C1FC0346FB7503E029
:101C38007B8A184601F01DFD97F91730002B05D057
:101C480097F917301946084800F06AFB97F91730DA
:101C580018461837BD4680BD5CD70008A0D70008D5
:101C68001D02002094010020E0D7000880B582B052
:101C780000AF0023FB71002000F064FC0346FB71F9
:101C880097F9073018460837BD4680BD80B582B041
:101C980000AF0023FB710B4B06221A7000F0F0FC1A
:101CA8000346FB710822002107480BF0A9FC01F04C
:101CB80065F8044B00221A7097F907301846083760
:101CC800BD4680BD1D0200209401002080B400AFF5
:101CD800034B1B78DBB21846BD465DF8047B7047A2
:101CE8001C02002080B400AF034B1B78DBB21846FF
:101CF800BD465DF8047B70473402002080B483B091
:101D080000AF78607B681B6843F001027B681A604B
:101D180000BF0C37BD465DF8047B704780B483B0C4
:101D280000AF78607B681B6823F001027B681A604B
:101D380000BF0C37BD465DF8047B704780B483B0A4
:101D480000AF786039607B681B6823F004023B6849
:101D58001A437B681A6000BF0C37BD465DF8047BE8
:101D6800704780B483B000AF78607B681B6803F06D
:101D7800040318460C37BD465DF8047B704780B4F1
:101D880083B000AF786039607B683A681A6300BF37
:101D98000C37BD465DF8047B704780B483B000AF54
:101DA80078607B685B6943F001027B685A6100BF19
:101DB8000C37BD465DF8047B7047000080B485B0E1
:101DC80000AF78607B681B689A68074B1340FB601C
:101DD800FB68062B0CBF01230023DBB2184614371F
:101DE800BD465DF8047B70470700010080B584B0EC
:101DF80000AF78600B46FB707B681B681846FFF7DE
:101E0800B0FFF860FB78002B23D07B681B68374A4B
:101E1800934218D07B681B68354A934213D07B687D
:101E28001B68344A93420ED07B681B68324A93423F
:101E380009D07B681B68314A934204D07B681B68D1
:101E48002F4A934205D17B681B6800211846FFF78B
:101E580096FFFB68042B11D07B681B680421184689
:101E6800FFF76CFF7B681B681846FFF796FF7B68D7
:101E78001B68F9681846FFF761FF04E07B681B6878
:101E88001846FFF78AFF7B681B681846FFF736FF7E
:101E9800FB78002B25D07B681B68144A934218D026
:101EA8007B681B68124A934213D07B681B68114AEF
:101EB80093420ED07B681B680F4A934209D07B6817
:101EC8001B680E4A934204D07B681B680C4A9342F5
:101ED80007D17B681A687B685B7919461046FFF75B
:101EE8004EFF00BF1037BD4680BD00BF002C01402B
:101EF80000340140004001400044014000480140D6
:101F08000050014080B582B000AF78607B681B68E4
:101F18001846FFF703FF00BF0837BD4680BD000025
:101F280080B5A6B000AF78607B6801225A60204B6C
:101F3800BB6000233B7300237B7307F1080318463B
:101F4800FFF750FC02467B68DA607B68DB6800219B
:101F58001846FFF722F9022387F897307B68DB6879
:101F680097F8972011461846FFF7DCFA7B68DB687C
:101F780097F8972011461846FFF784FB7B68DB68C3
:101F88001846FFF71BFF034687F8963097F89630F8
:101F9800002B05D17B68DB6800211846FFF726FF78
:101FA8007B6801221A7200BF9837BD4680BD00BF0A
:101FB8000004004098B500AF0E4BDB6800220021FA
:101FC8001846FFF799FC03460B4A13600B4B9A6AB5
:101FD80001329A629B6A1846FEF73CFA074BD3E92E
:101FE8000C23064CFEF7B0FA02460B46C4E9082358
:101FF80000BF98BDA00100209C010020B001002076
:1020080080B500AF20494FF00002204BC1E90E23F4
:102018001D491BA3D3E90023C1E90C231A4B1C4A11
:102028009A60194B1B4ADA60174B1B4A1A61164B08
:102038001A4A5A61144B1A4A5A60194B194A1A60BB
:10204800184B194A1A60174B174A5A600E4A0E4B1A
:102058005B6818329A600C4A0B4B5B6808325A600E
:10206800094A094B5B682032DA60104B00225A603B
:102078000E4B00221A700D48FFF752FF00BF80BDBB
:102088007B14AE47E17A843FB00100200000F0BF26
:102098002412B7A5E77C1CDE8F11F0DC530DC4D4E5
:1020A800F80100200C0200202CFF0008A0010020ED
:1020B80080B582B000AF174B1B78002B25D1154B8C
:1020C80001221A70134B5B68012B1ED1114B1B7A2E
:1020D800002B1AD00F4BDB681846FFF713FF0D4B88
:1020E800DB6800211846FFF73AF90223FB71094B18
:1020F800DB68FA7911461846FFF76CFA054BDB687E
:10210800FA7911461846FFF715FB00BF0837BD4698
:1021180080BD00BFA001002080B582B000AF4FF0A5
:1021280000024FF00003C7E90023164B1B785A1C26
:10213800D1B2144A1170002B09D0134B01221A6036
:10214800104B1B78013BDAB20E4B1A7016E062B6E0
:1021580000BF0E4B1B68D3E90823C7E90023FFF72C
:1021680029FF97ED000B0020FFF702FD72B600BFB4
:10217800044B1B78013BDAB2024B1A700837BD4694
:1021880080BD00BF180200201402002028FF0008AC
:1021980080B586B000AF786039605B4B7B615B4B84
:1021A8003B610023FB735A4B00221A70594B0022E3
:1021B8001A7001DF09F0BCFE08F0B4FC06F084F9DF
:1021C80009F02CF809F010F808F0BEFD08F060FEE0
:1021D80008F0F2FE08F07CFF08F008FD4E4B1B6883
:1021E80000221A6000210020FFF7B8FB0346FB73AA
:1021F80097F90F30002B02D097F90F3080E0FFF7E6
:10220800FFFE72B600BF62B600BF434B1B685A6838
:10221800414B1B68383319461046FFF7AFFB03469E
:10222800FB7397F90F30002B0DD14FF0FF30FFF7FC
:1022380039FCFFF74BFD0346002B04D0364B1B68D7
:10224800012283F8402072B600BF97ED050A06F018
:102258002DFAFFF747FD0346002B0CD1FFF736FD9B
:102268000346002B07D12C4B1B6893F84030002BFA
:1022780001D1012300E00023DAB2264B1A7062B6BE
:1022880000BF62B600BF2FE0FFF7F0FC0346FB7308
:10229800FFF728FD0346002B0AD1FFF717FD034679
:1022A800002B05D11C4B1B6893F84030002B01D044
:1022B800012300E00023DAB2154B1A70144B1B7887
:1022C800DBB2002B0CBF01230023DBB21A46114BF3
:1022D8001A700F4B1B78DBB2002B05D00F4B1B6815
:1022E8000E4A23F0010313600A4B1B78DBB2002B64
:1022F800CAD1FFF7DDFEFFF7C9FC72B600BF0023A5
:1023080018461837BD4680BD0AD7233C00002A432B
:10231800190200201A02002028FF000810E000E03F
:102328000FB480B400AF00BFBD465DF8047B04B0B5
:10233800704780B485B000AFF860B9607A60FB6818
:10234800BA681A60FB6804337A681A6000BF1437E9
:10235800BD465DF8047B7047F0B58BB000AF87EDE4
:10236800020B0346FB80FB88002B77D14FF000025D
:10237800414BD7E90201FEF7E7F802460B46C7E9E9
:1023880006239FED391B97ED060B0AF01FFE53EC51
:10239800102B10461946FEF787FB03467B61002386
:1023A8007B6233A3D3E90023D7E90601FEF75CFB80
:1023B8000346002B0ED02EA3D3E90023D7E906014C
:1023C800FEF7ECF902460B4610461946FEF76CFB81
:1023D80003467B627A6A79692848FFF7AAFF284B87
:1023E800D3E900014FF00002264BFEF715FB034628
:1023F800002B2ED1224BD3E900014FF000024FF001
:102408004043FEF709FB0346002B22D11C4BD3E9BE
:102418000001D7E90223FDF7DFFE02460B4614460A
:102428001D464FF00002184BD7E90201FEF78CF861
:1024380002460B4601210E4620462946FEF7F6FACB
:102448000346002B01D100231E46F3B21A460F4B58
:102458001A700F49D7E90223C1E9002300BF2C37BE
:10246800BD46F0BDAFF30080000000000000F04161
:102478000000E0FFFFFFEF4100408F4048020020CE
:10248800000000200000F0BF0000B03C3402002033
:102498005002002080B584B000AF0023BB60002349
:1024A8007B600023FB7323494FF000024FF00003C9
:1024B800C1E9002320494FF000024FF00003C1E9B1
:1024C80000233A1D07F108031146184605F0B6FF28
:1024D800BB687A681146184604F0D2F80346FB73C5
:1024E80097F90F30002B05D01448FFF719FF97F91B
:1024F8000F301AE03A1D07F108031146184605F097
:10250800B4FFBB687A681146184600F053FF0346CB
:10251800FB7397F90F30002B05D097F90F30194648
:102528000748FFF7FDFE97F90F3018461037BD46EC
:1025380080BD00BF38020020400200205CD900089E
:1025480084D9000880B584B000AF0346FB7100232E
:10255800FB730023BB73002005F09EFF00237B73F1
:1025680004F05CFA0346FB7397F90F30002B0DD08B
:1025780097F90F3013F1020F08D097F90F30194669
:102588003C48FFF7CDFE0123BB730BE07B7B002BA0
:1025980004D197F90F3013F1020F01D0012300E0A5
:1025A80000237B73BB7B002B21D100F035FF034652
:1025B800FB7397F90F30002B0DD097F90F3013F1FB
:1025C800020F08D097F90F3019462B48FFF7A8FEDD
:1025D8000123BB730BE07B7B002B04D197F90F30F1
:1025E80013F1020F01D0012300E000237B73BB7BB2
:1025F800002B21D104F09CF90346FB7397F90F30A7
:10260800002B0DD097F90F3013F1020F08D097F96E
:102618000F3019461948FFF783FE0123BB730BE0FF
:102628007B7B002B04D197F90F3013F1020F01D0F7
:10263800012300E000237B73FB79002B0DD00020E1
:1026480005F02AFFBB7B002B02D17B7B002B01D13D
:10265800012300E00023BB7301E00123BB73BB7BB4
:10266800002B3FF47BAF97F90F3018461037BD4663
:1026780080BD00BFACD90008E4D9000814DA00080E
:1026880080B582B000AF0023BB70394B1B78DBB23A
:10269800002B02D0002000F0DDFF00F0AFFF034662
:1026A800FB7000237B600EE00A2005F0F5FE7B68D6
:1026B80003F51C5310337B600120FFF743FF00F044
:1026C8009DFF0346FB707B682A4A934202D8FB7839
:1026D800002BE9D100F09EFF0346BB7097F902304A
:1026E800002B05D097F9023019462348FFF718FE4A
:1026F80004F00EFB0346BB7097F90230002B05D09F
:1027080097F9023019461D48FFF70AFE1C4B0022B4
:102718001A701C4B00221A701B4B00221A601B4BAC
:1027280000221A601A4B00221A601A4B00221A6003
:10273800194B00221A6019494FF000024FF040432C
:10274800C1E900230A4B00221A700822002114480C
:102758000AF056FF13494FF000024FF00003C1E999
:10276800002397F9023018460837BD4680BD00BFE0
:1027780034020020FF2C31014CDA000868DA000826
:102788001B0200201C02002020020020240200203E
:10279800280200202C020020300200200000002027
:1027A800480200205002002080B586B000AF614B7F
:1027B8001B687B617B69002B00F0B8805E4B1B783F
:1027C800DBB2002B04D15B4B1B68002B00F0AE8002
:1027D8005A4B1B78DBB2022B40F0A880584B1B7871
:1027E800002B40F0A3807B69D3E90023C7E90223CB
:1027F800544B1B78002B00F08A80534B1B78DBB2BC
:10280800002B04D0504B1B78DBB2022B01D10123E3
:1028180000E00023FB714C4B1B78DBB2012B04D08A
:10282800494B1B78DBB2022B01D1012300E00023C6
:10283800BB71FB79002B33D0444BD3E90023D7E994
:102848000201FEF707F90346002B0AD0404BD3E9F3
:1028580000013E4BD3E90023FEF7E8F80346002BBE
:1028680014D13A4BD3E90023D7E90201FEF7FCF86B
:102878000346002B14D0364BD3E90001334BD3E980
:102888000023FEF7C9F80346002B09D0314B1B681B
:10289800002B02D1304B01221A70294B01221A70E9
:1028A800BB79002B33D0294BD3E90023D7E90201A8
:1028B800FEF7BCF80346002B0AD0254BD3E90001EC
:1028C800224BD3E90023FEF7C5F80346002B14D1A9
:1028D8001E4BD3E90023D7E90201FEF79DF8034612
:1028E800002B14D01A4BD3E90001184BD3E900236D
:1028F800FEF7BAF80346002B09D0164B1B68002BCD
:1029080002D1154B01221A700D4B01221A700C4B83
:102918001B78002B0CBF01230023DBB21A46094B9E
:102928001A700B49D7E90223C1E9002300BF183701
:10293800BD4680BD5C020020600200207C020020B1
:102948008B02002088020020780200206802002004
:1029580080020020740200208A02002080B582B024
:1029680000AF0023FB719E4B1B78DBB2002B18D104
:102978009C4B00221A709C4B00221A709B4B1B78B0
:10298800DBB2002B2DD0964B02221A70974B0022F7
:102998001A70974B1B78DBB2002B22D10123FB71F5
:1029A8001FE0924B00221A708E4B1B78DBB2002B73
:1029B80009D0904B00221A70894B00221A70894B5B
:1029C80000221A700DE08A4B1B78DBB2002B02D173
:1029D8000123FB7105E0844B1B78FB71824B0022BD
:1029E8001A707F4B1B78DBB2042B00F2D78001A250
:1029F80052F823F0112A00084B2B00082B2A000854
:102A0800FF2A0008892A0008784B1B78DBB2002BC4
:102A180000F0D880724B02221A70744B00221A7090
:102A2800D0E0FB79002B00F0CF80734B1B68002BA4
:102A38000DDD6F4B1B78DBB2012B08D16E4B1B6889
:102A48001A466E4B1A60664B03221A70BCE06C4B38
:102A58001B68002B0AD0674B01221A70684B1B6851
:102A6800664A13605E4B04221A70ADE06548FFF7B2
:102A780057FC604B00221A70594B00221A70A3E0D1
:102A88005E4B1B68002B04D05C4B1B68013B5B4A08
:102A980013605A4B1B68002B40F098805A4B1B78E8
:102AA800DBB2012B06D1534B00221A704C4B00228B
:102AB8001A708BE0554B1B68002B0AD04D4B002237
:102AC8001A70524B1B684D4A1360454B01221A700D
:102AD8007CE0FB79002B07D0494B1B68474A136001
:102AE8003F4B04221A7071E0424B00221A703C4B93
:102AF80002221A706AE0414B1B68002B04D03F4B3E
:102B08001B68013B3D4A13603C4B1B68002B5FD19F
:102B18003B4B1B68002B0AD0364B01221A70384BEE
:102B28001B68364A13602E4B04221A7050E0354851
:102B3800FFF7F6FB2F4B00221A70294B00221A7060
:102B480046E02E4B1B68002B04D02C4B1B68013B26
:102B58002A4A1360294B1B68002B3BD1FB79002BB9
:102B680018D0274B1B68002B0AD0224B01221A7061
:102B7800234B1B68214A1360194B04221A7029E061
:102B88002048FFF7CDFB1B4B00221A70144B002284
:102B98001A701FE0124B02221A701BE0104B1B78B0
:102BA800DBB219461A48FFF7BBFB124B00221A701A
:102BB8000D4B00221A700B4B00221A70084B002292
:102BC8001A7008E000BF06E000BF04E000BF02E0A2
:102BD80000BF00E000BF00BF0837BD4680BD00BF92
:102BE8007C020020790200208B0200200C000020CB
:102BF8007A0200208A020020740200208C02002041
:102C0800080000208CDA00087B02002070020020F7
:102C1800B4DA000880B400AF10494FF000024FF05A
:102C28000003C1E900230E4B00221A700D4B1B78DC
:102C3800DAB20D4B1A700D4B00221A700C4B0022A1
:102C48001A700C4B00221A600B4B00221A700023DA
:102C58001846BD465DF8047B704700BF800200201F
:102C6800880200207A020020890200208A020020BF
:102C78008B0200208C0200207C02002080B584B0EA
:102C880000AF0346FB80FB88002B3FD1314B1B78FC
:102C9800DAB2314B1B789A4214BF01230023DBB20E
:102CA800FB732C4B1B78DAB22B4B1A70FB7B002B77
:102CB8000BD02A4B00221A70294B00221A70294B7C
:102CC80000221A60284B00221A70224B1B78DBB2B4
:102CD800012B1BD1244B1B78DBB2002B04D1234BD7
:102CE8001B78DBB2002B08D11F4B1B78DBB2012B02
:102CF8000CD11C4B1B68012B08D11A4B00221A60FF
:102D08001A4B00221A70184B02221A70114B1B78AA
:102D1800DBB2012B07D1164B1B889BB2FA889A426B
:102D280001D1FFF741FDFB88002B05D1FFF716FE07
:102D3800104B00221A7006E00E4B1B78002B02D0B5
:102D48000D4B1B7801E0054B1B7818461037BD4624
:102D580080BD00BF7A020020890200208A0200207C
:102D68008B0200208C0200207C0200200C00002036
:102D780058020020910200209002002080B400AF89
:102D880026494FF000024FF00003C1E90023244B0D
:102D980000221A70234B00221A70234B00221A704B
:102DA800224B00221A80224B00221A70214B00224B
:102DB8001A70214B00221A60204B00221A70204BF7
:102DC80000221A701F4B00221A601F4B00221A7033
:102DD8001E494FF000024FF00003C1E900231C4BCD
:102DE8004FF47A721A601B4B00221A601A4B0022A9
:102DF8001A601A4B00221A70194B01221A70194BCB
:102E080000221A70184B00221A70184B00221A70F0
:102E180000231846BD465DF8047B704780020020F9
:102E2800880200207C02002089020020580200202D
:102E38008A0200208B0200208C02002090020020D1
:102E4800910200205C02002060020020680200203D
:102E58000800002070020020740200207802002080
:102E68000C000020790200207A0200207B0200205A
:102E780080B400AF174B1B78DBB2002B25D1164B63
:102E88001B78DBB2002B0BD0144B1B78DBB2002B6A
:102E980006D1134B01221A70124B01221A7014E04A
:102EA8000E4B1B78DBB2002B0BD00B4B1B78DBB225
:102EB800002B06D10A4B00221A700A4B01221A7005
:102EC80003E0084B00221A70FFE700BFBD465DF81B
:102ED800047B70477A0200200C0000207902002051
:102EE800900200209102002080B586B000AFF86003
:102EF800B9607A603B600023FB7503F0FDFE386122
:102F0800FB681B68184604F00DF90021386803F0C7
:102F18006BFE0246BB681A6003F056FE02467B68E9
:102F28001A60BB681B68002B0FD0BB681B6819466A
:102F3800386904F0FDFB0246FB681A60FB681B68F1
:102F4800002B04D1F623FB7501E0F823FB7597F9F4
:102F5800173018461837BD4680BD000080B584B0CC
:102F680000AFF860B9607A60FA68BB6813441B78F0
:102F780019460848FFF7D4F9FB68002B02D0F86817
:102F880004F0D0F87B6800221A6000231846103736
:102F9800BD4680BDD8DA000880B584B000AFF860BF
:102FA800B9607A60FA68BB6813441B78194606480A
:102FB800FFF7B6F97B6802221A604FF0FF33184614
:102FC8001037BD4680BD00BF34DB000880B485B033
:102FD80000AF03460A46FB711346BB710523FB731A
:102FE800FB79F02B02D90023FB7322E0FB79E32B5A
:102FF80005D9FB79F02B02D80123FB7319E0FB7983
:10300800D22B02D9FB79E22B08D9FB79C02B08D146
:10301800BB79002B05D0BB79022B02D80223FB73A6
:1030280007E0FB79C72B04D9FB79D22B01D80323FE
:10303800FB73FB7B18461437BD465DF8047B70476D
:1030480080B58CB000AFF860B9607A603B60FB680F
:10305800BB62BB6A1B7887F82730002387F82F30BC
:1030680097F82730C02B06D1BB68012B03D9BB6A60
:103078005B7887F82F30364B1B78002B3ED097F8BB
:103088002F2097F8273011461846FFF79FFF034671
:10309800FB76002387F82E30FB7E052B23D0FB7EA2
:1030A8002C4A52F823307B6100233B617B69002B5B
:1030B80019D097F827207B691046984738613B69F3
:1030C800002B14BF01230023DBB287F82E3097F8BA
:1030D8002E30002B07D03B695A687B681A603B6921
:1030E8009A683B681A6097F82E30002B2CD17B68C1
:1030F800194A1A603B68194A1A6025E097F8273080
:10310800FF2B1BD1134B1B683B627B6800221A60A4
:103118003B6800221A603B6A002B15D03B6AFF20EF
:103128009847F861FB69002B0ED0FB695A687B68E9
:103138001A60FB699A683B681A6005E07B68084A70
:103148001A603B6800221A6000BF3037BD4680BD58
:103158009302002098020020A12F000831320008B5
:10316800652F000880B483B000AF0346FB71044AA2
:10317800FB79137000BF0C37BD465DF8047B7047C0
:103188009302002080B400AF034B1B781846BD465D
:103198005DF8047B704700BF9402002080B483B0C0
:1031A80000AF0346FB71064B1A78FB791343DAB27A
:1031B800034B1A7000BF0C37BD465DF8047B70479F
:1031C8009402002080B483B000AF0346FB7197F9E6
:1031D8000730DB435AB2074B1B785BB213405BB234
:1031E800DAB2044B1A7000BF0C37BD465DF8047B99
:1031F800704700BF9402002080B400AF034B1B78D7
:103208001846BD465DF8047B704700BF9502002054
:1032180080B400AF034B1B881846BD465DF8047B9D
:10322800704700BF9602002080B586B000AF034605
:10323800B9607A60FB7397F90F30002B05D1BB6832
:103248003B613B69FF221A7076E0BB687B617B6952
:10325800FE221A7097F90F3010330F2B62D801A293
:1032680052F823F0253300081D33000815330008F1
:103278000D33000805330008FD320008ED32000860
:10328800F5320008E5320008DD320008D5320008C2
:10329800CD320008B5320008AD320008BD32000852
:1032A800C53200087B6930225A7045E07B692922C3
:1032B8005A7041E07B6922225A703DE07B692022E6
:1032C8005A7039E07B6900225A7035E07B69232205
:1032D8005A7031E07B6921225A702DE07B691122F6
:1032E8005A7029E07B6927225A7025E07B692A22D7
:1032F8005A7021E07B6910225A701DE07B692422F4
:103308005A7019E07B6928225A7015E07B692622D9
:103318005A7011E07B6931225A700DE07B693322C3
:103328005A7009E097F90F3019460548FEF7F8FF7B
:103338007B6920225A70FFE700BF1837BD4680BD61
:1033480064DB000880B487B000AF0346B9607A60D8
:10335800FB7300237B61BB68002B23D000233B61F8
:1033680000233B6117E03A6913465B0013449B0056
:103378001A46BB6813441B78FA7B9A4208D13A690B
:1033880013465B0013449B001A46BB6813447B61D9
:103398003B6901333B613A697B689A4202D27B6997
:1033A800002BE0D07B6918461C37BD465DF8047BCE
:1033B8007047000080B582B000AF78603960134B69
:1033C8001B78002B05D01248FEF7AAFF6FF00B03FD
:1033D80018E000F07BFC00F085FC03460D4A136002
:1033E80002F052FA02F06CFA03460A4A936003F0BC
:1033F80045F803F04DF80346064A5360034B012293
:103408001A70002318460837BD4680BD9202002076
:10341800A8DB00089802002080B58CB002AF00231A
:1034280087F82730002387F826300023FB61002324
:10343800BB6100237B6100233B610023FB60002309
:103448003B620023BB6000237B60554B1B78002B3D
:1034580005D15448FEF764FF6FF008039BE007F1BD
:10346800140007F1180207F11C0107F1100300937B
:103478000346002003F012FB034687F8273097F92C
:103488002730002B09D097F9273013F1040F04D007
:1034980097F9273013F1050F71D1FB69002B05D07F
:1034A8007A693B691A44BB699A4203D9F82387F8B9
:1034B800273067E0FA697B6913443B6239693B1D31
:1034C80007F10802386AFFF7BBFDBB68002B09D17A
:1034D8003B6A1B7819463448FEF722FFF42387F825
:1034E80027304FE0BB68F869796907F10C02984703
:1034F800034687F826307B68002B3DD0FB68002BFD
:103508003AD0002387F827303A69FB689A420BD2F1
:10351800FB6807F1140207F1180107F11C00FFF717
:10352800E3FC034687F827303B691A460021386ACE
:103538000AF066F897F92730002B1DD1FA697B69E4
:1035480013443B627B68FA6897F92600396A984702
:10355800F969B8697B69FA680192009303460A46DB
:103568004FF6FF71012003F041F9034687F8273031
:1035780097F92730002B04D197F927300BE000BFCB
:1035880000E000BFFB69002B03D0FB69184603F07D
:10359800C9FD97F9273018462837BD4680BD00BFBA
:1035A80092020020D8DB000800DC000880B584B057
:1035B80000AF0346FB800023FB730023BB600D4B69
:1035C8001B78002B05D10C48FEF7AAFE6FF0080304
:1035D8000CE004F0C9FFB860FB880022B9681846FF
:1035E80002F06CFB0346FB7397F90F30184610374F
:1035F800BD4680BD9202002030DC000880B400AFD8
:10360800034B1B781846BD465DF8047B704700BF26
:103618009302002080B500AF0B4B1B78002B02D122
:103628000A48FEF77DFE02F04FFF02F0F1FD00F0C0
:1036380075FB10220021064809F0E2FF024B002228
:103648001A700023184680BD9202002028DD000869
:103658009802002080B584B000AF7860786802F0E6
:10366800B1FB0346FB7397F90F3018461037BD4678
:1036780080BD80B584B000AF0346FB800123FB7397
:10368800FA7BFB880021184602F018FB0346BB733F
:1036980097F90E3018461037BD4680BD80B584B006
:1036A80000AF0346FB710123FB6003F0DCFAB8604E
:1036B800FA79B968FB68B1FBF3F39A4234BF012386
:1036C8000023DBB218461037BD4680BD80B584B0F4
:1036D80000AF78600B46FB7000F02AFBF860F968D1
:1036E8000648FEF71DFE064B1B781A46F9687868EF
:1036F80009F0B8FF00BF1037BD4680BD50DD000897
:10370800B002002080B588B000AFF860B9607A6078
:103718000023FB77FA68BB681344BB61BB697B6114
:103728000023FB7402F0A6FC0346FB74FB7C002B11
:1037380008D11A48FEF7F4FD7B6802221A606FF080
:103748000A0327E07B695B78002B03D07B695B78F1
:10375800012B01D1012300E00023FB74FB7C002B2B
:103768000BD17B695B7819460D48FEF7D9FD7B685C
:1037780002221A606FF001030CE00A48FEF7D0FD40
:103788000120FFF7EFFC0023FB777B6808221A6013
:1037980097F91F3018462037BD4680BD68DD000800
:1037A800B4DD0008D8DD000880B586B000AF034658
:1037B800B9607A60FB7397F90F30002B47D1BB686B
:1037C8007B6108220021786909F01AFF7B69FF22D2
:1037D8001A7005227B695A7000227B699A7003F07F
:1037E80042FA0346DAB27B69DA7003F035FA034627
:1037F8009AB27B699A807B6901229A717B6901225E
:10380800DA717B695B7819461648FEF789FD7B6992
:103818009B7819461448FEF783FD7B69DB781946C7
:103828001248FEF77DFD7B699B889BB219461048BC
:10383800FEF776FD7B699B7919460E48FEF770FD09
:103848007B69DB7919460C48FEF76AFD06E097F9B3
:103858000F307A68B9681846FFF7E6FC00BF1837DA
:10386800BD4680BD00DE00081CDE000838DE00080A
:1038780054DE000870DE00088CDE000880B586B0D3
:1038880000AFF860B9607A600123FB7502F0F2FBC3
:103898000346FB75FB7D002B08D10B48FEF740FD66
:1038A8007B6802221A606FF00A0309E00748FEF7F6
:1038B80037FD0020FFF756FC7B6801221A600023C1
:1038C80018461837BD4680BDA8DE0008F8DE000897
:1038D80080B584B000AFF860B9607A600548FEF73B
:1038E8001FFD7B6806221A60002318461037BD4664
:1038F80080BD00BF28DF000880B586B000AF034652
:10390800B9607A60FB73BB687B6106220021786925
:1039180009F076FE7B69FF221A70FFF733FC034635
:103928001A467B695A70FFF767FC03461A467B699B
:103938009A70FFF76DFC03461A467B699A807B698B
:103948005B7819460948FEF7EBFC7B699B781946BA
:103958000748FEF7E5FC7B699B889BB2194605483A
:10396800FEF7DEFC00BF1837BD4680BD34DF000817
:1039780058DF00087CDF000880B586B000AFF8602B
:10398800B9607A600023FB750B48FEF7C9FC02F0AA
:103998005BFB0346FB75FB7D002B03D003F08CF922
:1039A80002F061FB7B6802221A606FF0040318467C
:1039B8001837BD4680BD00BFA0DF000880B588B0BD
:1039C80000AFF860B9607A600023FB77FA68BB68DB
:1039D8001344BB61BB697B610023FB747B695A6834
:1039E8007B69DB781946104600F0AEF90346FB7494
:1039F800FB7C002B08D10D48FEF792FC7B68022265
:103A08001A606FF00B030CE07B6959687B69DB78FF
:103A18001A460748FEF784FC7B6801221A6097F96A
:103A28001F3018462037BD4680BD00BFA8DF0008FC
:103A3800C4DF000880B58AB000AFF860B9607A606A
:103A4800002387F82730FA68BB6813443B623B6A57
:103A5800FB610023FB7600F06BF97861FB695B780A
:103A68001846FFF71BFE0346FB76FB7E002B0BD1A7
:103A7800FB695B7819461248FEF752FC7B68022204
:103A88001A606FF0010316E07B69002B08D10D481E
:103A9800FEF746FC7B6802221A606FF00B030AE00F
:103AA800FB695A78084B1A70074B1B785A1C7B68BD
:103AB8001A6097F9273018462837BD4680BD00BFE1
:103AC800F8DF000828E00008B002002080B588B0C0
:103AD80000AF0346B9607A60FB7397F90F30002B8B
:103AE80030D100F025F9F861BB68BB6101220021E3
:103AF800B86909F085FDBB69FF221A70FB69002BC4
:103B08001CD0164B1B7801337A689A4216D1BB68D1
:103B180001337B610023FB741148FEF701FCFB7C39
:103B280019467869FFF7D2FD0C4B1B78184600F050
:103B380029F90A4B00221A7000BF0AE00948FEF76B
:103B4800EFFB06E097F90F307A68B9681846FFF777
:103B58006BFB00BF2037BD4680BD00BFB002002010
:103B680044E0000850E0000880B588B000AFF86075
:103B7800B9607A600023FB77FA68BB681344BB61BD
:103B8800BB697B610023FB747B695B781846FFF790
:103B980085FD0346FB74FB7C002B0BD17B695B78AE
:103BA80019461748FEF7BCFB7B6802221A606FF0C3
:103BB800010320E07B695A687B69DB781946104667
:103BC80000F0C2F80346FB74FB7C002B08D10D48BB
:103BD800FEF7A6FB7B6802221A606FF00B030AE06F
:103BE8007B695A78084B1A70074B1B785A1C7B68FC
:103BF8001A6097F91F3018462037BD4680BD00BFB0
:103C080070E00008A4E00008B002002080B588B089
:103C180000AF0346B9607A60FB7397F90F30002B49
:103C280030D100F085F8F861BB68BB610122002142
:103C3800B86909F0E5FCBB69FF221A70FB69002B23
:103C48001CD0164B1B7801337A689A4216D1BB6890
:103C580001337B610023FB741148FEF761FBFB7C99
:103C680019467869FFF732FD0C4B1B78184600F0AF
:103C780089F80A4B00221A7000BF0AE00948FEF7CB
:103C88004FFB06E097F90F307A68B9681846FFF7D6
:103C9800CBFA00BF2037BD4680BD00BFB002002070
:103CA800C4E00008D4E0000880B582B000AF034645
:103CB800FB71FB79072204491846FFF743FB0346CB
:103CC80018460837BD4680BD30FF000880B500AFF4
:103CD800034800F013F800F069F800BF80BD00BF8A
:103CE800B13C000880B400AF034B1B681846BD46C2
:103CF8005DF8047B704700BFB402002080B483B035
:103D080000AF7860044A7B68136000BF0C37BD467B
:103D18005DF8047B704700BFB402002080B500AF97
:103D280000F04BF80020FFF7E9FF00BF80BD00005E
:103D380080B400AF034B1B681846BD465DF8047B92
:103D4800704700BFA802002080B483B000AF78603D
:103D58000B46FB70FB78002B04D17B68002B01D14C
:103D6800002306E0064A7B681360054AFB78137156
:103D7800012318460C37BD465DF8047B704700BF29
:103D8800A802002080B483B000AF0346FB71064B45
:103D98001A68FB791344044A136000BF0C37BD4608
:103DA8005DF8047B704700BFA802002080B400AF14
:103DB80000BFBD465DF8047B704780B400AF00BF0C
:103DC800BD465DF8047B704780B584B000AF0346FC
:103DD800FB800023FB7305F0E8FE03460B4A1360E3
:103DE8000B4B1B68002B0CBF01230023DBB2FB73BA
:103DF800FB7B002B04D1054B1B68184605F0E6FE3B
:103E0800FB7B18461037BD4680BD00BFC4020020AA
:103E1800C002002080B582B000AF0346FB80044B8F
:103E28001B68184605F0D2FE00BF0837BD4680BDA6
:103E3800C402002080B582B000AF0346FB8005F0C5
:103E4800B4FE0346074A1360074B1B680133064A52
:103E58001360044B1B68184605F0B8FE00BF08370E
:103E6800BD4680BDC4020020C002002080B582B0DB
:103E780000AF0346FB8005F098FE0346074A13602F
:103E8800074B1B68013B064A1360044B1B68184626
:103E980005F09CFE00BF0837BD4680BDC402002067
:103EA800C002002080B483B000AF0346FB80104BF3
:103EB8001968FA8813465B001344DB000B445B79EE
:103EC800022B0AD00A4B1968FA8813465B00134480
:103ED800DB000B445B79032B01D1012300E00023B5
:103EE800DBB218460C37BD465DF8047B704700BF4F
:103EF800B802002080B582B000AF0023FB71002318
:103F0800BB800023BB8008E0BB881846FFF7CAFFC8
:103F18000346FB71BB880133BB80094B9B88BA8879
:103F28009A4202D2FB79002BEED0FB79002B0CBF12
:103F380001230023DBB218460837BD4680BD00BF09
:103F4800B802002080B485B000AF0346FB800B4662
:103F58007B7113463B71284B1B68002B42D0264BC4
:103F68009B88FA889A423DD2234B1968FA881346EF
:103F78005B001344DB000B441B68002B32D01E4B44
:103F88001968FA8813465B001344DB000B441B795D
:103F98007A799A4226D2184B1968FA8813465B0038
:103FA8001344DB000B4419687A791346DB009B1A2B
:103FB8009B000B441B68002B14D00F4B1968FA8820
:103FC80013465B001344DB000B4419687A791346E7
:103FD800DB009B1A9B000B441B793A799A4201D269
:103FE800012300E00023FB73FB7B18461437BD4612
:103FF8005DF8047B704700BFB802002080B485B02C
:1040080000AF03463A60FB710B46BB710023FB739C
:10401800BB79BB81FB79FF2B04D1BB89FF2B01D86E
:104028000123FB73FB7B18461437BD465DF8047B00
:10403800704780B483B000AF0346FB71FB7923F06F
:104048001003002B0CBF01230023DBB218460C37EA
:10405800BD465DF8047B704780B485B000AF034669
:10406800FB710023FB73FB79002B05D0FB79012B37
:1040780002D0FB79022B01D10123FB73FB7B18468D
:104088001437BD465DF8047B704780B485B000AF37
:104098000346FB710023FB73FB79002B05D0FB79EA
:1040A800012B02D0FB79022B01D10123FB73FB7B8F
:1040B80018461437BD465DF8047B704780B400AFDE
:1040C80001231846BD465DF8047B704780B485B06F
:1040D80000AF0346FB80164B1968FA8813465B004D
:1040E8001344DB000B441B7B022B0ED1104B1968C9
:1040F800FA8813465B001344DB000B44DA880D4B47
:104108001B889A4201D0012300E00023FB73FB7B4C
:10411800002B04D0FB88002B01D1012300E00023F1
:10412800FB73FB7B18461437BD465DF8047B70476C
:10413800B80200201800002080B485B000AF786075
:104148000B46FB707B681968FA781346DB009B1AEC
:104158009B000B44BB60BB689B687A68D28902FBF2
:1041680003F30133FB60FB78002B08D17B681B7AD3
:1041780003F01003002B02D0FB680433FB60FB68DC
:1041880018461437BD465DF8047B704780B586B085
:1041980000AF78600023BB7400237B610023FB74AD
:1041A8000023FB7415E0FB7C19467868FFF7C4FF11
:1041B800F8600023BB600121F86802F015FDB860C3
:1041C800BA687B699A4201D9BB687B61FB7C013381
:1041D800FB747B681B79FA7C9A42E4D37B681B7971
:1041E8001A4613465B0099187B6814331A46786997
:1041F80003F050F80346BB7497F91230002B03D034
:104208007B684FF0FF325A6197F912301846183719
:10421800BD4680BD80B582B000AF78607B685B69C1
:10422800B3F1FF3F04D07B685B69184603F044F99B
:104238007B684FF0FF325A6100BF0837BD4680BD2A
:1042480080B58AB000AFF860B9607A60002387F85B
:104258002730FA68BB6813443B623B6AFB61FB6921
:104268009A78DB781B0213437B83FB691B797B7687
:10427800FB695B793B760023FB753A7E797E7B8B05
:104288001846FFF75FFE0346FB75FB7D002B0BD13D
:10429800798B7A7E3B7E1D48FEF742F87B680222C6
:1042A8001A606FF001032CE07B8B1846FFF7FAFDCC
:1042B8000346002B0CBF01230023DBB2FB75FB7DFB
:1042C800002B0AD17B8B19461148FEF729F87B6829
:1042D80002221A606FF0070313E0798B7A7E3B7E27
:1042E8000C48FEF71DF80C4A7B8B13800A4A7B7E2C
:1042F8009370094A3B7ED3707B6801221A6097F954
:10430800273018462837BD4680BD00BFFCE00008AE
:1043180040E1000870E1000814000020F0B58FB0FB
:1043280004AFF860B9607A60002387F82730FA682C
:10433800BB6813443B623B6AFB61584B1B887B8319
:10434800564B9B787B76554BDB783B7600237B611D
:104358000023FB743A7E797E7B8B1846FFF7F2FDCB
:104368000346FB74FB7C002B0BD1798B7A7E3B7E5A
:104378004B48FDF7D5FF7B6802221A606FF00503F2
:1043880087E07B8B1846FFF78DFD0346002B0CBF9B
:1043980001230023DBB2FB74FB7C002B0AD17B8B4F
:1043A80019464048FDF7BCFF7B6802221A606FF08F
:1043B80007036EE0FB695878FB699978FB695B68CD
:1043C8001A46FFF71BFE0346FB74FB7C002B1BD130
:1043D800798B7A7E387EFB695B781C46FB699B7813
:1043E8001D46FB69DB781E46FB695B6803930296F2
:1043F8000195009403462C48FDF792FF7B68022242
:104408001A606FF0010344E0798B7A7E387EFB698D
:104418005B781C46FB699B781D46FB69DB781E466A
:10442800FB695B68039302960195009403461F4855
:10443800FDF776FF1E4B19687A8B13465B00134411
:10444800DB000B4419687A7E1346DB009B1A9B003D
:104458000B441A683B7EDB0013447B61FB695A7886
:104468007B691A70FB699A787B695A70FB69DA78FC
:104478007B699A70FB695A687B695A60074BDB78DD
:104488000133DAB2054BDA707B6801221A6097F9BA
:10449800273018462C37BD46F0BD00BF1400002059
:1044A800C0E100081CE200084CE20008C4E2000871
:1044B800B802002090B58DB002AFF860B9607A609C
:1044C800002387F82730FA68BB6813443B623B6ACD
:1044D800FB610023BB610023FB75614B1B68002B4C
:1044E80008D0FB695B889AB25D4B9B889A4201D2DF
:1044F800012300E00023FB75FB7D002B0CD1FB6939
:104508005B889BB219465748FDF70AFF7B68022271
:104518001A606FF001039FE0514B1A68FB695B88D2
:104528009BB219460B465B000B44DB001344BB618E
:10453800FB695B889BB21846FFF7B4FC0346002B67
:104548000CBF01230023DBB2FB75FB7D002B0CD1D4
:10455800FB695B889BB219464348FDF7E1FE7B681F
:1045680002221A606FF0070376E0FB699B889BB212
:104578007F2B94BF01230023DBB2FB75FB7D002B4F
:104588000CD1FB699B889BB219463848FDF7C8FED9
:104598007B6802221A606FF001035DE0FB69DB793A
:1045A800002B0CBF01230023DBB2FB75FB7D002B26
:1045B80008D12F48FDF7B4FE7B6802221A606FF01D
:1045C800010349E0FB695B781846FFF732FD0346B3
:1045D800FB75FB7D002B0BD1FB695B7819462548E1
:1045E800FDF79EFE7B6802221A606FF0090333E034
:1045F800FB695B889BB21946FB695B781846FB69C7
:104608009B889BB21C46FB699B791A46FB69DB7940
:1046180001930092234602461748FDF781FEFB6985
:104628005A78BB691A72FB699B889AB2BB69DA80AF
:10463800FB699A79BB695A72FB69DA79BB699A7224
:10464800BB695B7A012B02D8BB6901225A727B686D
:1046580001221A6097F9273018462C37BD4690BDBD
:10466800B802002034E3000864E3000898E3000877
:10467800C8E3000804E4000838E4000890B58FB0E7
:1046880000AFF860B9607A60002387F82630FA68CE
:10469800BB6813443B623B6AFB610023BB61FB6957
:1046A8005B889BB27B61002387F837300023FB745B
:1046B8008A4B1B68002B07D0884B9B881A467B695E
:1046C800934201DA012300E0002387F8373097F896
:1046D8003730002B09D179698148FDF721FE7B68C5
:1046E80002221A606FF00103B2E17E4A7B6913600F
:1046F8007A4B19687A6913465B001344DB000B4454
:10470800BB61FB695B781846FFF7A6FC034687F890
:10471800373097F83730002B0BD1FB695B78194697
:104728007148FDF7FDFD7B6802221A606FF00903EE
:104738008EE1FFF7C3FC0346002B5AD0BB695B79B7
:10474800002B56D1BB691B7A03F00203002B21D042
:10475800BB691B68002B09D0604BDB791A46BB6923
:104768001B791344802B01DC012300E0002387F828
:10477800373097F83730002B2DD0584BDA79BB6992
:10478800DA72564BDA79BB691B791344DAB2534BA8
:10479800DA7120E0BB691B68002B09D04F4B9B796D
:1047A8001A46BB691B791344FC2B01DC012300E08A
:1047B800002387F8373097F83730002B0BD0474B5A
:1047C8009A79BB69DA72454B9A79BB691B791344AC
:1047D800DAB2424B9A7197F83730002B09D17969D0
:1047E8004248FDF79DFD7B6802221A606FF00803BE
:1047F8002EE1FB695B78012B04D0FB695B78022B07
:1048080040F0908000233B63012387F83730002372
:104818003B637CE00023FB620023BB620023FB6256
:1048280013E0BB6919683A6B1346DB009B1A9B00BF
:104838000B441A68FB6ADB0013445B781A46BB6AB0
:104848001344BB62FB6A0133FB62BB6919683A6BAC
:104858001346DB009B1A9B000B441B791A46FB6A24
:104868009342DEDB3B6B002B17D1BB691B7A03F04D
:104878001003002B11D0BB69DB891A46BB6A02FB07
:1048880003F35C1D02F0E8F903469C4294BF012340
:104898000023DBB287F8373010E0BB69DB891A46A2
:1048A800BB6A02FB03F35C1C02F0D6F903469C4288
:1048B80094BF01230023DBB287F8373097F83730ED
:1048C800002B17D13A6B79690948FDF729FD7B68F8
:1048D80002221A606FF00803BAE000BFB802002095
:1048E8009CE4000810000020CCE40008FCE4000868
:1048F80038E50008BB6919683A6B1346DB009B1A58
:104908009B000B44BA6A9A603B6B01333B63BB69FB
:104918001B791A463B6B934204DA97F83730002B21
:104928007FF478AFBB69DB881846FFF74DFA03467A
:10493800FB74FB7C002B7DD0002387F82730FB69B4
:104948005B78022B53D0022B5FDC002B02D0012BAB
:1049580013D05AE079694048FDF7E2FCBB690122AF
:104968005A71FFF7C7FA0346002B4BD00120FEF718
:10497800F9FB4020FEF726FC44E079693748FDF74B
:10498800CFFCBB695B69B3F1FF3F22D1BB69DA8811
:10499800334B1B889A420CD1314B5868304B99687D
:1049A800BB6914331A4602F033FE034687F82730F2
:1049B8000FE07B69002B0CDCBB69DB88002B08D17E
:1049C800B869FFF7E3FB034687F82730BB69002285
:1049D8001A8297F92730002B16D1BB6903225A7126
:1049E8000220FEF7BFFB4020FEF7D8FB0CE0FB6976
:1049F8005B889BB219461B48FDF792FCBB690222F3
:104A08005A7102E000BF00E000BFBB69DB881846AE
:104A1800FFF700FA7B6802221A6097F92730002B0B
:104A280008D01148FDF77CFC7B6802221A606FF001
:104A380002030DE0FB7C002B08D10C48FDF770FC4D
:104A48007B6802221A606FF00A0301E097F92630AA
:104A580018463C37BD4690BD9CE50008C8E50008EF
:104A680018000020F4E5000820E600086CE60008BD
:104A780080B586B000AF0346B9607A60FB7397F9DA
:104A88000F30002B12D1BB687B617B69FF221A7043
:104A98000C4B1A680C4B1B6819460B465B000B4401
:104AA800DB001344DA7A7B695A7006E097F90F3015
:104AB8007A68B9681846FEF7B7FB00BF1837BD46D5
:104AC80080BD00BFB80200201000002090B58BB058
:104AD80000AFF860B9607A600023FB77FA68BB68BA
:104AE8001344BB61BB697B610023FB740023BB7467
:104AF80000237B627B695B781846FFF7C6FA03469A
:104B0800FB74FB7C002B0BD17B695B781946A648AC
:104B1800FDF706FC7B6802221A606FF0090362E168
:104B2800A24B1B68002B05D0A04B9B88002B01D003
:104B3800012300E00023FB74FB7C002B08D19C4878
:104B4800FDF7EEFB7B6802221A606FF001034AE171
:104B580001F07AFA0346BB74BB7C002B00F0358168
:104B6800002387F8233000233B847B695B78022B82
:104B780000F0D580022B00F30681002B02D0012B18
:104B88002CD000E100237B621BE0884B19687A6A0D
:104B980013465B001344DB000B445B79002B0DD0FC
:104BA800796A8448FDF7BCFB804B19687A6A13461A
:104BB8005B001344DB000B4401225A717B6A01330A
:104BC8007B627A4B9B881A467B6A9342DDDB012025
:104BD800FEF7C8FA4020FEF7F5FAD4E000237B621E
:104BE80063E0724B19687A6A13465B001344DB0072
:104BF8000B445B79022B55D16C4B19687A6A1346C2
:104C08005B001344DB000B445B69B3F1FF3F49D100
:104C1800664B19687A6A13465B001344DB000B4441
:104C2800DA88654B1B889A4214D1634B5868624BEB
:104C38009C685E4B19687A6A13465B001344DB0074
:104C48000B4414331A46214602F0E2FC034687F867
:104C5800233027E07B6A002B24DC544B19687A6ADE
:104C680013465B001344DB000B44DB88002B19D18F
:104C78004E4B19687A6A13465B001344DB000B44F9
:104C88001846FFF783FA034687F82330474B19681D
:104C98007A6A13465B001344DB000B4400221A8235
:104CA8007B6A3B847B6A01337B62404B9B881A4654
:104CB8007B6A934203DA97F92330002B91D097F956
:104CC8002330002B5CD100237B6221E0374B19682D
:104CD8007A6A13465B001344DB000B445B79022BB2
:104CE80013D1796A3548FDF71BFB304B19687A6A8E
:104CF80013465B001344DB000B4403225A71022065
:104D0800FEF730FA4020FEF749FA7B6A01337B62EE
:104D1800264B9B881A467B6A9342D7DB30E00023F8
:104D28007B621BE0214B19687A6A13465B001344C7
:104D3800DB000B445B79022B0DD1796A1D48FDF726
:104D4800EFFA1A4B19687A6A13465B001344DB00C2
:104D58000B4401225A717B6A01337B62134B9B8897
:104D68001A467B6A9342DDDBFFF7C4F80346002B43
:104D780008D00120FEF7F6F94020FEF723FA01E0FB
:104D880000BF00E000BF01F06EF997F92330002B57
:104D980018D03B8C19460A48FDF7C2FA7B680222F4
:104DA8001A606FF002031EE0B4E60008B8020020A3
:104DB800E4E6000810E700081800002038E70008BB
:104DC80060E700087B6801221A60BB7C002B08D1D1
:104DD8000748FDF7A5FA7B6802221A606FF00A03FC
:104DE80001E097F91F3018462C37BD4690BD00BF2B
:104DF800ACE7000880B584B000AFF860B9607A60AD
:104E08000548FDF78DFA7B6808221A6000231846CA
:104E18001037BD4680BD00BFF0E7000880B586B0FA
:104E280000AF0346B9607A60FB73BB687B610822F8
:104E38000021786908F0E4FB7B69FF221A707B691E
:104E480011225A707B694FF0FF329A704FF0FF328F
:104E5800DA707B69002262F07F021A7100225A71AF
:104E68007B6900229A717B690022DA717B695B7821
:104E780019461048FDF754FA7B695B889BB21946BE
:104E88000D48FDF74DFA7B699B889BB219460B4884
:104E9800FDF746FA7B699B7919460948FDF740FA00
:104EA8007B69DB7919460748FDF73AFA00BF1837DE
:104EB800BD4680BD08E8000824E8000840E800086E
:104EC8005CE8000878E8000880B584B000AFF860B6
:104ED800B9607A600548FDF723FA7B6808221A60F2
:104EE800002318461037BD4680BD00BF94E800086F
:104EF80080B586B000AF0346B9607A60FB73BB68C3
:104F08007B6108220021786908F07AFB7B69FF221F
:104F18001A707B6901225A707B69FF229A707B693B
:104F28000122DA707B69FF221A717B6934225A7177
:104F38007B69002242F001029A710022DA717B69D2
:104F48005B7819461248FDF7EBF97B699B7819469F
:104F58001048FDF7E5F97B69DB7819460E48FDF73F
:104F6800DFF97B691B7919460C48FDF7D9F97B698C
:104F78005B7919460A48FDF7D3F97B69DB889BB250
:104F880019460848FDF7CCF900BF1837BD4680BD63
:104F9800B0E80008D8E8000800E9000828E9000897
:104FA80050E900087CE9000880B586B000AFF860D9
:104FB800B9607A600023FB750023BB750F48FDF7C5
:104FC800AFF901F057F80346BB75BB7D002B08D13C
:104FD8000B48FDF7A5F97B6802221A606FF00A03F7
:104FE80007E00120FEF7BEF87B6801221A6097F9F6
:104FF800173018461837BD4680BD00BFA4E9000821
:10500800D4E9000880B58CB000AFF860B9607A6068
:10501800002387F82B30FA68BB6813447B627B6AED
:105028003B623B6A5B889BB2FB610023BB61002348
:10503800FB750023FB62514B1B68002B0CBF01233F
:105048000023DBB2FB75FB7D002B08D14C48FDF734
:1050580067F97B6802221A606FF003038AE0FB6934
:10506800002B05DDFB69B3F5803F01DA012300E081
:105078000023FB75FB7D002B09D1F9694148FDF739
:105088004FF97B6802221A606FF0010372E0FA6937
:1050980013465B001344DB001A46F9693A48FDF7EA
:1050A8003FF9FA6913465B001344DB00184601F028
:1050B800C5FFB861BB69002B09D1F9693348FDF711
:1050C8002FF97B6802221A606FF0020352E0FA6936
:1050D80013465B001344DB001A460021B86908F048
:1050E8008FFA264ABB691360FB699AB2234B9A80F0
:1050F8000023FB6235E0FA6A13465B001344DB00C9
:105108001A46BB6913444FF0FF325A61FA6A1346D4
:105118005B001344DB001A46BB69134400221A7370
:10512800FA6A13465B001344DB001A46BB69134452
:1051380001225A73FA6A13465B001344DB001A46CD
:10514800BB6913440122DA81FA6A13465B001344EF
:10515800DB001A46BB69134400221A82FB6A01333A
:10516800FB62FA6AFB699A42C5DB7B6801221A6016
:1051780097F92B3018463037BD4680BDB80200205D
:1051880010EA000854EA000884EA0008B0EA0008B7
:1051980090B589B000AFF860B9607A600023FB77FA
:1051A800FA68BB681344BB61BB697B617B699A7809
:1051B800DB781B0213437B827B691B797B7400239A
:1051C8003B745C4B1B68002B14BF01230023DBB22C
:1051D8003B743B7C002B08D15748FDF7A1F87B684E
:1051E80002221A606FF003039FE0524B9B887A8A71
:1051F8009A4234BF01230023DBB23B743B7C002B73
:105208000AD17B8A19464D48FDF78AF87B68022245
:105218001A606FF0010388E07B7C002B04D07B7C54
:10522800FC2B01D8012300E000233B743B7C002BBE
:105238000BD17B7C7A8A19464148FDF771F87B6867
:1052480002221A606FF001036FE03A4B19687A8AFC
:1052580013465B001344DB000B441B68002B0CBF98
:1052680001230023DBB23B743B7C002B08D135487B
:10527800FDF756F87B6802221A606FF0030354E0CA
:10528800797C788A7A7C1346DB009B1A9B0002465D
:105298002D48FDF745F87A7C1346DB009B1A9B00E6
:1052A8001846244B19687A8A13465B001344DB00BE
:1052B800CC1801F0C3FE034623601E4B19687A8A96
:1052C80013465B001344DB000B441B68002B0BD117
:1052D8007B7C7A8A19461D48FDF722F87B680222F2
:1052E8001A606FF0020320E0124B19687A8A13469D
:1052F8005B001344DB000B4418687A7C1346DB0020
:105308009B1A9B001A46002108F07AF9094B196884
:105318007A8A13465B001344DB000B447A7C1A71CB
:105328007B6801221A6097F91F3018462437BD465A
:1053380090BD00BFB8020020E8EA000828EB00088A
:1053480054EB000890EB0008CCEB000804EC0008D4
:1053580090B58DB002AFF860B9607A60002387F825
:105368002730FA68BB6813443B623B6AFB61FB6900
:105378009A78DB781B0213437B83FB691B797B7666
:10538800FB695B793B760023FB75844B1B68002B1C
:1053980014BF01230023DBB2FB75FB7D002B08D172
:1053A8007F48FCF7BDFF7B6802221A606FF0030399
:1053B800F0E07A4B9B887A8B9A4234BF0123002312
:1053C800DBB2FB75FB7D002B0AD17B8B1946754838
:1053D800FCF7A6FF7B6802221A606FF00103D9E090
:1053E8006E4B19687A8B13465B001344DB000B4441
:1053F8001B68002B14BF01230023DBB2FB75FB7D68
:10540800002B08D16848FCF78BFF7B6802221A60E2
:105418006FF00303BEE0614B19687A8B13465B009B
:105428001344DB000B441B797A7E9A4234BF012374
:105438000023DBB2FB75FB7D002B0AD17B7E19466E
:105448005A48FCF76DFF7B6802221A606FF001036F
:10545800A0E0524B19687A8B13465B001344DB00BB
:105468000B4419687A7E1346DB009B1A9B000B4499
:105478001B68002B0CBF01230023DBB2FB75FB7DEF
:10548800002B08D14A48FCF74BFF7B6802221A60C0
:105498006FF003037EE03B7E002B14BF0123002343
:1054A800DBB2FB75FB7D002B0BD1397E7A7E7B8BC3
:1054B8004048FCF735FF7B6802221A606FF0010351
:1054C80068E0397E7A8B787E3B7EDB00009303466A
:1054D8003948FCF725FF3B7ED800304B19687A8B9A
:1054E80013465B001344DB000B4419687A7E1346AD
:1054F800DB009B1A9B00CC1801F0A0FD034623603B
:10550800264B19687A8B13465B001344DB000B4467
:1055180019687A7E1346DB009B1A9B000B441B68B4
:10552800002B0BD1397E7A8B7B7E2448FCF7F8FE62
:105538007B6802221A606FF002032BE0174B196890
:105548007A8B13465B001344DB000B4419687A7EA0
:105558001346DB009B1A9B000B4418683B7EDB005C
:105568001A46002108F04CF80C4B19687A8B134640
:105578005B001344DB000B4419687A7E1346DB009A
:105588009B1A9B000B443A7E1A717B6801221A60B1
:1055980097F9273018462C37BD4690BDB802002031
:1055A80044EC000888EC0008BCEC0008FCEC00089F
:1055B80028ED000874ED0008C4ED000810EE00089E
:1055C80080B485B000AFF860B9607A607B68022269
:1055D8001A606FF00F0318461437BD465DF8047B58
:1055E8007047000080B58AB000AFF860B9607A6093
:1055F800002387F82730FA68BB6813443B623B6A8C
:10560800FB61FB699A78DB781B0213437B83FB6998
:105618001B797B76FB695B793B76FB699A79DB7949
:105628001B021343FB8201237B756C4B1B68002B09
:1056380014BF01230023DBB27B757B7D002B08D1CF
:105648006748FCF76DFE7B6802221A606FF003035F
:10565800C0E0624B9B887A8B9A4234BF01230023B7
:10566800DBB27B757B7D002B0AD17B8B19465D48AD
:10567800FCF756FE7B6802221A606FF00103A9E06E
:105688007B8B002B0CBF01230023DBB27B757B7D5A
:10569800002B0AD17B8B19465348FCF741FE7B68E7
:1056A80002221A606FF0090394E07B7E002B02D07F
:1056B8007B7E022B01D1012300E000237B757B7DDB
:1056C800002B0AD17B7E19464848FCF729FE7B68E7
:1056D80002221A606FF009037CE03B7E012B0CBFAD
:1056E80001230023DBB27B757B7D002B0AD13B7E37
:1056F80019463F48FCF714FE7B6802221A606FF0D7
:10570800090367E07B7E002B02D1FB8A012B05D0C1
:105718007B7E002B04D0FB8A012B01D9012300E0FA
:1057280000237B757B7D002B0AD1FB8A1946314803
:10573800FCF7F6FD7B6802221A606FF0090349E066
:105748007B8B1846FEF7AEFB0346002B0CBF0123EC
:105758000023DBB27B757B7D002B08D12648FCF744
:10576800DFFD7B6802221A606FF0070332E0797E62
:105778003A7EFB8A2148FCF7D3FD184B19687A8BCF
:1057880013465B001344DB000B447A7E1A73134BF9
:1057980019687A8B13465B001344DB000B443A7E8E
:1057A8005A730E4B19687A8B13465B001344DB005F
:1057B8000B44FA8ADA81094B19687A8B13465B0025
:1057C8001344DB000B4400221A827B6801221A6012
:1057D80097F9273018462837BD4680BDB802002003
:1057E80060EE0008A8EE0008E0EE000844EF0008AC
:1057F80080EF0008C4EF000808F0000864F0000813
:1058080080B588B000AFF860B9607A600023FB7794
:10581800FA68BB681344BB61BB695B78012B0CBF9A
:1058280001230023DBB2FB75FB7D002B0BD1BB6989
:105838005B7819460A48FCF773FD7B6802221A60F8
:105848004FF0FF3308E07A68B968F868FFF7CAFED6
:105858000346FB7797F91F3018462037BD4680BDB1
:10586800B4F0000880B582B000AF0346FB71FB7945
:105878000D2204491846FDF765FD0346184608370A
:10588800BD4680BD84FF000880B500AF084B0022EC
:105898001A60084B00221A6008220021064807F007
:1058A800AFFE064800F018F800F0C2FC00BF80BD4B
:1058B800C4020020C0020020B80200206D58000871
:1058C80080B400AF034B1B681846BD465DF8047BE7
:1058D800704700BFC802002080B483B000AF786072
:1058E800044A7B68136000BF0C37BD465DF8047B33
:1058F800704700BFC802002080B584B000AF0346DF
:10590800FB800023FB600023BB60224B1B68002B3D
:1059180004D0204B9B88FA889A4205D31E48FCF78E
:10592800FFFC4FF0FF3331E01A4B1968FA88134631
:105938005B001344DB000B44BB60FB881846FEF792
:10594800C5FB0346002B03D0BB681B8A002B01D183
:1059580000231BE00023FB600EE0BB681968FA68AF
:105968001346DB009B1A9B000B44DB68184601F0CA
:10597800D9FBFB680133FB60BB681B791A46FB68DF
:105988009342EADBBB6800221A82002318461037CC
:10599800BD4680BDB8020020ECF0000880B487B096
:1059A80000AFF8600B467A60FB72FB681968FA7AF8
:1059B8001346DB009B1A9B000B443B613B695B6908
:1059C8007B613B6900229A61FB68DA7AFB7A1344AF
:1059D800DAB27B691A707B6901337B61FB7A002B31
:1059E80011D1FB681B7A03F01003002B0BD07A68E7
:1059F8007B691A603B699B6904337A6913447B614C
:105A08003B6900229A613B697A695A6100BF1C3779
:105A1800BD465DF8047B704780B588B000AF7860FC
:105A28000023FB777B685B69BB610023FB7735E06C
:105A38007B681A68FB7FDB0013447B617B695B68CA
:105A48003B617B691B78FF2B12D03B69FB60FB68CD
:105A58001B687A691278114601228A401340002B8C
:105A680014BF01230023DBB21A46BB691A7006E093
:105A78007B695B781A463969B86907F0F3FD7B6979
:105A88005B781A467B689B691344BA691344BB6107
:105A98007B6800229A61FB7F0133FB777B681B7967
:105AA800FA7F9A42C4D37B68BA695A6100BF20372B
:105AB800BD4680BD80B58EB002AF0346B9607A603E
:105AC800FB81002387F82F30002387F82E3000232E
